:1000000010C02AC029C028C027C026C025C024C0CF
:1000100023C022C021C020C01FC01EC01DC01CC0E4
:100020001BC011241FBECFE5D2E0DEBFCDBF10E064
:10003000A0E6B0E0E4ECF1E002C005900D92A2363B
:10004000B107D9F710E0A2E6B0E001C01D92A936D1
:10005000B107E1F712D0B5C0D3CF292F332720BD88
:1000600089B986E880BD88E18AB908955F9BFECF93
:100070008CB190E008958CB90895EF92FF920F93A0
:100080001F9387E190E0E9DF7894709160006091C0
:100090006100109167005F9BFECFFCB18F2FF6FFD0
:1000A00003C0EE24FF2403C0E72EFF24F39483FD56
:1000B00003C000E0E0E002C0072FE62F82FFE62F3A
:1000C00081FD11E051E079C02F2F30E0C90180712E
:1000D0009070F5FF04C0892B31F450E16AC0892B80
:1000E00011F450E266C050E022FF09C0071729F062
:1000F000E61719F40F5F05C0EF5F88E003C0E6174D
:10010000D9F784E023FF0CC0071721F4E61759F054
:10011000E0E002C0E61711F058E04BC054E049C0DF
:10012000582F882309F5C90181709070A82F882362
:1001300011F440E005C0112311F442E001C041E098
:10014000892B09F442E0C9018270907021FD02C040
:10015000542F03C0112309F452E0AA2329F0892B5C
:1001600019F011E051E025C0552319F5D901A0740B
:10017000B07026FF03C0FF2051F007C0FF2011F42C
:1001800080E006C0E71619F0E39480E801C080E43F
:10019000F7FD02C0582F06C0FF2011F450E402C042
:1001A000E71250E8AB2B29F0F7FF03C050E8FF241B
:1001B000F3945CB95F9BFECFFCB1552309F084CF6B
:0401C0006ACFFFCF34
:0201C400141E07
:00000001FF
